{
    "contractName": "Main",
    "abi": [
        {
            "inputs": [],
            "name": "fundersCount",
            "outputs": [
                {
                    "internalType": "uint256",
                    "name": "",
                    "type": "uint256"
                }
            ],
            "stateMutability": "view",
            "type": "function"
        },
        {
            "inputs": [],
            "name": "owner",
            "outputs": [
                {
                    "internalType": "address",
                    "name": "",
                    "type": "address"
                }
            ],
            "stateMutability": "view",
            "type": "function"
        },
        {
            "inputs": [
                {
                    "internalType": "address",
                    "name": "newOwner",
                    "type": "address"
                }
            ],
            "name": "transferOwnership",
            "outputs": [],
            "stateMutability": "nonpayable",
            "type": "function"
        },
        {
            "stateMutability": "payable",
            "type": "receive"
        },
        {
            "inputs": [
                {
                    "internalType": "uint256",
                    "name": "withdrawAmount",
                    "type": "uint256"
                }
            ],
            "name": "withdraw",
            "outputs": [],
            "stateMutability": "nonpayable",
            "type": "function"
        },
        {
            "inputs": [],
            "name": "send",
            "outputs": [],
            "stateMutability": "payable",
            "type": "function"
        },
        {
            "inputs": [],
            "name": "getAllFunders",
            "outputs": [
                {
                    "internalType": "address[]",
                    "name": "",
                    "type": "address[]"
                }
            ],
            "stateMutability": "view",
            "type": "function"
        },
        {
            "inputs": [
                {
                    "internalType": "uint256",
                    "name": "index",
                    "type": "uint256"
                }
            ],
            "name": "getFunderByIndex",
            "outputs": [
                {
                    "internalType": "address",
                    "name": "",
                    "type": "address"
                }
            ],
            "stateMutability": "view",
            "type": "function"
        }
    ],
    "bytecode": "0x608060405234801561001057600080fd5b50336000806101000a81548173ffffffffffffffffffffffffffffffffffffffff021916908373ffffffffffffffffffffffffffffffffffffffff160217905550610a51806100606000396000f3fe6080604052600436106100745760003560e01c80636fbbb55d1161004e5780636fbbb55d146101115780638da5cb5b1461013c578063b46300ec14610167578063f2fde38b146101715761007b565b806313a2e117146100805780632e1a7d4d146100ab578063454a0311146100d45761007b565b3661007b57005b600080fd5b34801561008c57600080fd5b5061009561019a565b6040516100a29190610629565b60405180910390f35b3480156100b757600080fd5b506100d260048036038101906100cd9190610675565b6101a0565b005b3480156100e057600080fd5b506100fb60048036038101906100f69190610675565b6102c4565b60405161010891906106e3565b60405180910390f35b34801561011d57600080fd5b50610126610301565b60405161013391906107bc565b60405180910390f35b34801561014857600080fd5b506101516103fb565b60405161015e91906106e3565b60405180910390f35b61016f61041f565b005b34801561017d57600080fd5b506101986004803603810190610193919061080a565b61053f565b005b60015481565b80670de0b6b3a764000081106101eb576040517f08c379a00000000000000000000000000000000000000000000000000000000081526004016101e290610894565b60405180910390fd5b60008054906101000a900473ffffffffffffffffffffffffffffffffffffffff1673ffffffffffffffffffffffffffffffffffffffff163373ffffffffffffffffffffffffffffffffffffffff1614610279576040517f08c379a000000000000000000000000000000000000000000000000000000000815260040161027090610926565b60405180910390fd5b3373ffffffffffffffffffffffffffffffffffffffff166108fc839081150290604051600060405180830381858888f193505050501580156102bf573d6000803e3d6000fd5b505050565b60006003600083815260200190815260200160002060009054906101000a900473ffffffffffffffffffffffffffffffffffffffff169050919050565b6060600060015467ffffffffffffffff81111561032157610320610946565b5b60405190808252806020026020018201604052801561034f5781602001602082028036833780820191505090505b50905060005b6001548110156103f3576003600082815260200190815260200160002060009054906101000a900473ffffffffffffffffffffffffffffffffffffffff168282815181106103a6576103a5610975565b5b602002602001019073ffffffffffffffffffffffffffffffffffffffff16908173ffffffffffffffffffffffffffffffffffffffff168152505080806103eb906109d3565b915050610355565b508091505090565b60008054906101000a900473ffffffffffffffffffffffffffffffffffffffff1681565b6000339050600260008273ffffffffffffffffffffffffffffffffffffffff1673ffffffffffffffffffffffffffffffffffffffff16815260200190815260200160002060009054906101000a900460ff1661053c5760006001600081548092919061048a906109d3565b919050559050816003600083815260200190815260200160002060006101000a81548173ffffffffffffffffffffffffffffffffffffffff021916908373ffffffffffffffffffffffffffffffffffffffff1602179055506001600260008473ffffffffffffffffffffffffffffffffffffffff1673ffffffffffffffffffffffffffffffffffffffff16815260200190815260200160002060006101000a81548160ff021916908315150217905550505b50565b60008054906101000a900473ffffffffffffffffffffffffffffffffffffffff1673ffffffffffffffffffffffffffffffffffffffff163373ffffffffffffffffffffffffffffffffffffffff16146105cd576040517f08c379a00000000000000000000000000000000000000000000000000000000081526004016105c490610926565b60405180910390fd5b806000806101000a81548173ffffffffffffffffffffffffffffffffffffffff021916908373ffffffffffffffffffffffffffffffffffffffff16021790555050565b6000819050919050565b61062381610610565b82525050565b600060208201905061063e600083018461061a565b92915050565b600080fd5b61065281610610565b811461065d57600080fd5b50565b60008135905061066f81610649565b92915050565b60006020828403121561068b5761068a610644565b5b600061069984828501610660565b91505092915050565b600073ffffffffffffffffffffffffffffffffffffffff82169050919050565b60006106cd826106a2565b9050919050565b6106dd816106c2565b82525050565b60006020820190506106f860008301846106d4565b92915050565b600081519050919050565b600082825260208201905092915050565b6000819050602082019050919050565b610733816106c2565b82525050565b6000610745838361072a565b60208301905092915050565b6000602082019050919050565b6000610769826106fe565b6107738185610709565b935061077e8361071a565b8060005b838110156107af5781516107968882610739565b97506107a183610751565b925050600181019050610782565b5085935050505092915050565b600060208201905081810360008301526107d6818461075e565b905092915050565b6107e7816106c2565b81146107f257600080fd5b50565b600081359050610804816107de565b92915050565b6000602082840312156108205761081f610644565b5b600061082e848285016107f5565b91505092915050565b600082825260208201905092915050565b7f746f6f206d75636820666f72206f6e6520706572736f6e000000000000000000600082015250565b600061087e601783610837565b915061088982610848565b602082019050919050565b600060208201905081810360008301526108ad81610871565b9050919050565b7f6f6e6c79206f776e65722063616e2063616c6c20746869732066756e6374696f60008201527f6e00000000000000000000000000000000000000000000000000000000000000602082015250565b6000610910602183610837565b915061091b826108b4565b604082019050919050565b6000602082019050818103600083015261093f81610903565b9050919050565b7f4e487b7100000000000000000000000000000000000000000000000000000000600052604160045260246000fd5b7f4e487b7100000000000000000000000000000000000000000000000000000000600052603260045260246000fd5b7f4e487b7100000000000000000000000000000000000000000000000000000000600052601160045260246000fd5b60006109de82610610565b91507fffffffffffffffffffffffffffffffffffffffffffffffffffffffffffffffff8203610a1057610a0f6109a4565b5b60018201905091905056fea264697066735822122049e58b3328b8e346c2ed36afd60b0ba151c711185cc351e98e390b5b4183af1a64736f6c634300080f0033",
    "immutableReferences": {},
    "source": "// SPDX-License-Identifier: MIT\r\npragma solidity ^0.8.10;\r\n\r\nimport \"./Owned.sol\";\r\n\r\ncontract Main is Owned {\r\n    uint256 public fundersCount;\r\n\r\n    mapping(address => bool) private funders;\r\n    mapping(uint256 => address) private lutFunders;\r\n\r\n    modifier limitWithdraw(uint256 amount) {\r\n        require(amount < 1000000000000000000, \"too much for one person\");\r\n        _;\r\n    }\r\n\r\n    receive() external payable {}\r\n\r\n    function withdraw(uint256 withdrawAmount) limitWithdraw(withdrawAmount) onlyOwner external {\r\n        payable(msg.sender).transfer(withdrawAmount);\r\n    }\r\n\r\n    function send() external payable {\r\n        address funder = msg.sender;\r\n        if (!funders[funder]) {\r\n            uint256 index = fundersCount++;\r\n            lutFunders[index] = funder;\r\n            funders[funder] = true;\r\n        }\r\n    }\r\n\r\n    function getAllFunders() external view returns (address[] memory) {\r\n        address[] memory _funders = new address[](fundersCount);\r\n        for (uint256 i = 0; i < fundersCount; i++) {\r\n            _funders[i] = lutFunders[i];\r\n        }\r\n        return _funders;\r\n    }\r\n\r\n    function getFunderByIndex(uint256 index) public view returns (address) {\r\n        return lutFunders[index];\r\n    }\r\n}\r\n",
    "sourcePath": "C:\\Users\\User\\Desktop\\blockchain\\blch\\contracts\\Main.sol",
    "compiler": {
        "name": "solc",
        "version": "0.8.15+commit.e14f2714.Emscripten.clang"
    },
    "schemaVersion": "3.4.8",
    "updatedAt": "2022-07-21T19:57:58.124Z",
    "devdoc": {
        "kind": "dev",
        "methods": {},
        "version": 1
    },
    "userdoc": {
        "kind": "user",
        "methods": {},
        "version": 1
    }
}